{
  "_format": "hh-sol-artifact-1",
  "contractName": "Staking",
  "sourceName": "contracts/Staking.sol",
  "abi": [
    {
      "inputs": [
        {
          "internalType": "address",
          "name": "tokenA",
          "type": "address"
        },
        {
          "internalType": "address",
          "name": "nftB",
          "type": "address"
        }
      ],
      "stateMutability": "nonpayable",
      "type": "constructor"
    },
    {
      "inputs": [
        {
          "internalType": "address",
          "name": "owner",
          "type": "address"
        }
      ],
      "name": "OwnableInvalidOwner",
      "type": "error"
    },
    {
      "inputs": [
        {
          "internalType": "address",
          "name": "account",
          "type": "address"
        }
      ],
      "name": "OwnableUnauthorizedAccount",
      "type": "error"
    },
    {
      "inputs": [],
      "name": "ReentrancyGuardReentrantCall",
      "type": "error"
    },
    {
      "anonymous": false,
      "inputs": [
        {
          "indexed": true,
          "internalType": "address",
          "name": "user",
          "type": "address"
        },
        {
          "indexed": false,
          "internalType": "uint256",
          "name": "newBaseAPR",
          "type": "uint256"
        }
      ],
      "name": "APRUpdated",
      "type": "event"
    },
    {
      "anonymous": false,
      "inputs": [
        {
          "indexed": true,
          "internalType": "address",
          "name": "user",
          "type": "address"
        },
        {
          "indexed": false,
          "internalType": "uint256",
          "name": "amount",
          "type": "uint256"
        }
      ],
      "name": "Deposited",
      "type": "event"
    },
    {
      "anonymous": false,
      "inputs": [
        {
          "indexed": true,
          "internalType": "address",
          "name": "user",
          "type": "address"
        },
        {
          "indexed": false,
          "internalType": "uint256",
          "name": "Id",
          "type": "uint256"
        }
      ],
      "name": "NFTDeposited",
      "type": "event"
    },
    {
      "anonymous": false,
      "inputs": [
        {
          "indexed": true,
          "internalType": "address",
          "name": "user",
          "type": "address"
        },
        {
          "indexed": false,
          "internalType": "uint256",
          "name": "tokenId",
          "type": "uint256"
        }
      ],
      "name": "NFTMinted",
      "type": "event"
    },
    {
      "anonymous": false,
      "inputs": [
        {
          "indexed": true,
          "internalType": "address",
          "name": "user",
          "type": "address"
        },
        {
          "indexed": false,
          "internalType": "uint256",
          "name": "tokenId",
          "type": "uint256"
        }
      ],
      "name": "NFTsWithDrawn",
      "type": "event"
    },
    {
      "anonymous": false,
      "inputs": [
        {
          "indexed": true,
          "internalType": "address",
          "name": "previousOwner",
          "type": "address"
        },
        {
          "indexed": true,
          "internalType": "address",
          "name": "newOwner",
          "type": "address"
        }
      ],
      "name": "OwnershipTransferred",
      "type": "event"
    },
    {
      "anonymous": false,
      "inputs": [
        {
          "indexed": true,
          "internalType": "address",
          "name": "user",
          "type": "address"
        },
        {
          "indexed": false,
          "internalType": "uint256",
          "name": "reward",
          "type": "uint256"
        }
      ],
      "name": "RewardClaimed",
      "type": "event"
    },
    {
      "anonymous": false,
      "inputs": [
        {
          "indexed": true,
          "internalType": "address",
          "name": "user",
          "type": "address"
        },
        {
          "indexed": false,
          "internalType": "uint256",
          "name": "amount",
          "type": "uint256"
        },
        {
          "indexed": false,
          "internalType": "uint256",
          "name": "reward",
          "type": "uint256"
        }
      ],
      "name": "WithDrawn",
      "type": "event"
    },
    {
      "inputs": [],
      "name": "APR",
      "outputs": [
        {
          "internalType": "uint256",
          "name": "",
          "type": "uint256"
        }
      ],
      "stateMutability": "view",
      "type": "function"
    },
    {
      "inputs": [],
      "name": "APR_Bonus",
      "outputs": [
        {
          "internalType": "uint256",
          "name": "",
          "type": "uint256"
        }
      ],
      "stateMutability": "view",
      "type": "function"
    },
    {
      "inputs": [],
      "name": "NFT_PREREQUISITE",
      "outputs": [
        {
          "internalType": "uint256",
          "name": "",
          "type": "uint256"
        }
      ],
      "stateMutability": "view",
      "type": "function"
    },
    {
      "inputs": [],
      "name": "TIME_LOCK",
      "outputs": [
        {
          "internalType": "uint256",
          "name": "",
          "type": "uint256"
        }
      ],
      "stateMutability": "view",
      "type": "function"
    },
    {
      "inputs": [
        {
          "internalType": "address",
          "name": "user",
          "type": "address"
        }
      ],
      "name": "_calculateReward",
      "outputs": [
        {
          "internalType": "uint256",
          "name": "",
          "type": "uint256"
        }
      ],
      "stateMutability": "view",
      "type": "function"
    },
    {
      "inputs": [],
      "name": "_nftB",
      "outputs": [
        {
          "internalType": "contract NFTB",
          "name": "",
          "type": "address"
        }
      ],
      "stateMutability": "view",
      "type": "function"
    },
    {
      "inputs": [],
      "name": "_tokenA",
      "outputs": [
        {
          "internalType": "contract TokenA",
          "name": "",
          "type": "address"
        }
      ],
      "stateMutability": "view",
      "type": "function"
    },
    {
      "inputs": [],
      "name": "claimReward",
      "outputs": [],
      "stateMutability": "nonpayable",
      "type": "function"
    },
    {
      "inputs": [
        {
          "internalType": "uint256",
          "name": "amount",
          "type": "uint256"
        }
      ],
      "name": "deposit",
      "outputs": [],
      "stateMutability": "nonpayable",
      "type": "function"
    },
    {
      "inputs": [],
      "name": "getContractBalance",
      "outputs": [
        {
          "internalType": "uint256",
          "name": "",
          "type": "uint256"
        }
      ],
      "stateMutability": "view",
      "type": "function"
    },
    {
      "inputs": [
        {
          "internalType": "address",
          "name": "user",
          "type": "address"
        }
      ],
      "name": "getCurrentAPR",
      "outputs": [
        {
          "internalType": "uint256",
          "name": "",
          "type": "uint256"
        }
      ],
      "stateMutability": "view",
      "type": "function"
    },
    {
      "inputs": [
        {
          "internalType": "address",
          "name": "user",
          "type": "address"
        }
      ],
      "name": "getListStakedNFT",
      "outputs": [
        {
          "internalType": "uint256[]",
          "name": "",
          "type": "uint256[]"
        }
      ],
      "stateMutability": "view",
      "type": "function"
    },
    {
      "inputs": [
        {
          "internalType": "address",
          "name": "user",
          "type": "address"
        }
      ],
      "name": "getLockTimeRemaining",
      "outputs": [
        {
          "internalType": "uint256",
          "name": "",
          "type": "uint256"
        }
      ],
      "stateMutability": "view",
      "type": "function"
    },
    {
      "inputs": [
        {
          "internalType": "address",
          "name": "user",
          "type": "address"
        }
      ],
      "name": "getNFTInfo",
      "outputs": [
        {
          "internalType": "uint256",
          "name": "",
          "type": "uint256"
        }
      ],
      "stateMutability": "view",
      "type": "function"
    },
    {
      "inputs": [
        {
          "internalType": "address",
          "name": "user",
          "type": "address"
        }
      ],
      "name": "getNFTListByOwner",
      "outputs": [
        {
          "internalType": "uint256[]",
          "name": "",
          "type": "uint256[]"
        }
      ],
      "stateMutability": "view",
      "type": "function"
    },
    {
      "inputs": [
        {
          "internalType": "address",
          "name": "user",
          "type": "address"
        }
      ],
      "name": "getStakeDetail",
      "outputs": [
        {
          "internalType": "uint256",
          "name": "amount",
          "type": "uint256"
        },
        {
          "internalType": "uint256",
          "name": "pendingReward",
          "type": "uint256"
        },
        {
          "internalType": "uint256",
          "name": "calculatedReward",
          "type": "uint256"
        },
        {
          "internalType": "uint256",
          "name": "lockEndTime",
          "type": "uint256"
        },
        {
          "internalType": "uint256",
          "name": "nftCount",
          "type": "uint256"
        }
      ],
      "stateMutability": "view",
      "type": "function"
    },
    {
      "inputs": [
        {
          "internalType": "address",
          "name": "user",
          "type": "address"
        }
      ],
      "name": "getStakeNFTCount",
      "outputs": [
        {
          "internalType": "uint256",
          "name": "",
          "type": "uint256"
        }
      ],
      "stateMutability": "view",
      "type": "function"
    },
    {
      "inputs": [
        {
          "internalType": "address",
          "name": "",
          "type": "address"
        }
      ],
      "name": "mintedNFTs",
      "outputs": [
        {
          "internalType": "uint256",
          "name": "",
          "type": "uint256"
        }
      ],
      "stateMutability": "view",
      "type": "function"
    },
    {
      "inputs": [
        {
          "internalType": "uint256",
          "name": "tokenId",
          "type": "uint256"
        }
      ],
      "name": "nftDeposit",
      "outputs": [],
      "stateMutability": "nonpayable",
      "type": "function"
    },
    {
      "inputs": [],
      "name": "owner",
      "outputs": [
        {
          "internalType": "address",
          "name": "",
          "type": "address"
        }
      ],
      "stateMutability": "view",
      "type": "function"
    },
    {
      "inputs": [],
      "name": "renounceOwnership",
      "outputs": [],
      "stateMutability": "nonpayable",
      "type": "function"
    },
    {
      "inputs": [
        {
          "internalType": "address",
          "name": "",
          "type": "address"
        },
        {
          "internalType": "uint256",
          "name": "",
          "type": "uint256"
        }
      ],
      "name": "stakedNFTs",
      "outputs": [
        {
          "internalType": "uint256",
          "name": "",
          "type": "uint256"
        }
      ],
      "stateMutability": "view",
      "type": "function"
    },
    {
      "inputs": [
        {
          "internalType": "address",
          "name": "",
          "type": "address"
        }
      ],
      "name": "stakes",
      "outputs": [
        {
          "internalType": "uint256",
          "name": "timestamp",
          "type": "uint256"
        },
        {
          "internalType": "uint256",
          "name": "amount",
          "type": "uint256"
        },
        {
          "internalType": "uint256",
          "name": "nftCount",
          "type": "uint256"
        },
        {
          "internalType": "uint256",
          "name": "lockEndTime",
          "type": "uint256"
        },
        {
          "internalType": "uint256",
          "name": "pendingReward",
          "type": "uint256"
        },
        {
          "internalType": "uint256",
          "name": "totalStakedAmount",
          "type": "uint256"
        },
        {
          "internalType": "uint256",
          "name": "nftDepositTime",
          "type": "uint256"
        },
        {
          "internalType": "uint256",
          "name": "mintedNFTCount",
          "type": "uint256"
        }
      ],
      "stateMutability": "view",
      "type": "function"
    },
    {
      "inputs": [
        {
          "internalType": "address",
          "name": "newOwner",
          "type": "address"
        }
      ],
      "name": "transferOwnership",
      "outputs": [],
      "stateMutability": "nonpayable",
      "type": "function"
    },
    {
      "inputs": [
        {
          "internalType": "uint256",
          "name": "newAPR",
          "type": "uint256"
        }
      ],
      "name": "updateAPR",
      "outputs": [],
      "stateMutability": "nonpayable",
      "type": "function"
    },
    {
      "inputs": [],
      "name": "withDrawn",
      "outputs": [],
      "stateMutability": "nonpayable",
      "type": "function"
    },
    {
      "inputs": [
        {
          "internalType": "uint256[]",
          "name": "tokenIds",
          "type": "uint256[]"
        }
      ],
      "name": "withDrawnNFT",
      "outputs": [],
      "stateMutability": "nonpayable",
      "type": "function"
    }
  ],
  "bytecode": "0x6080604052601e60075561032060085560c860095569d3c21bcecceda1000000600a553480156200002f57600080fd5b5060405162001e3f38038062001e3f833981016040819052620000529162000128565b33806200007957604051631e4fbdf760e01b81526000600482015260240160405180910390fd5b6200008481620000bb565b5060018055600280546001600160a01b039384166001600160a01b0319918216179091556003805492909316911617905562000160565b600080546001600160a01b038381166001600160a01b0319831681178455604051919092169283917f8be0079c531659141344cd1fd0a4f28419497f9722a3daafe3b4186f6b6457e09190a35050565b80516001600160a01b03811681146200012357600080fd5b919050565b600080604083850312156200013c57600080fd5b62000147836200010b565b915062000157602084016200010b565b90509250929050565b611ccf80620001706000396000f3fe608060405234801561001057600080fd5b50600436106101a95760003560e01c80639ae3b518116100f9578063c7d24d3011610097578063f2fde38b11610071578063f2fde38b1461042a578063f3c4469f1461043d578063f706004814610450578063f821b4951461046357600080fd5b8063c7d24d30146103fb578063e0a09c681461040e578063e7e2629e1461041757600080fd5b8063b6b55f25116100d3578063b6b55f25146103b7578063b88a802f146103ca578063ba060bed146103d2578063bd30558e146103f257600080fd5b80639ae3b51814610388578063af06e40e1461039b578063afea2639146103a457600080fd5b80633c6d5aab116101665780634ba76eee116101405780634ba76eee146103185780636f9fb98a14610353578063715018a61461035b5780638da5cb5b1461036357600080fd5b80633c6d5aab146102d157806348930d11146102d9578063497f285d1461030557600080fd5b806301d650e1146101ae578063095c7783146101d457806316934fc4146101fd5780631ffc480f14610289578063279d9afa146102a95780633823ec3b146102be575b600080fd5b6101c16101bc366004611a16565b61046c565b6040519081526020015b60405180910390f35b6101c16101e2366004611a16565b6001600160a01b031660009081526006602052604090205490565b61024e61020b366004611a16565b6004602081905260009182526040909120805460018201546002830154600384015494840154600585015460068601546007909601549496939592949192909188565b604080519889526020890197909752958701949094526060860192909252608085015260a084015260c083015260e0820152610100016101cb565b61029c610297366004611a16565b6104bf565b6040516101cb9190611a33565b6102bc6102b7366004611a77565b61064c565b005b6101c16102cc366004611a16565b61083c565b6102bc610885565b6101c16102e7366004611a16565b6001600160a01b031660009081526004602052604090206002015490565b6101c1610313366004611a16565b610caf565b61032b610326366004611a16565b610e22565b604080519586526020860194909452928401919091526060830152608082015260a0016101cb565b6101c1610e6f565b6102bc610ee1565b6000546001600160a01b03165b6040516001600160a01b0390911681526020016101cb565b600354610370906001600160a01b031681565b6101c160095481565b6102bc6103b2366004611a90565b610ef3565b6102bc6103c5366004611a77565b61120a565b6102bc61153c565b6101c16103e0366004611a16565b60066020526000908152604090205481565b6101c160085481565b61029c610409366004611a16565b611726565b6101c160075481565b6102bc610425366004611a77565b611792565b6102bc610438366004611a16565b6117d7565b600254610370906001600160a01b031681565b6101c161045e366004611b05565b611812565b6101c1600a5481565b6001600160a01b038116600090815260046020526040812060028101548203610499575050600854919050565b60095481600201546104ab9190611b47565b6008546104b89190611b64565b9392505050565b6003546040516370a0823160e01b81526001600160a01b0383811660048301526060926000929116906370a0823190602401602060405180830381865afa15801561050e573d6000803e3d6000fd5b505050506040513d601f19601f820116820180604052508101906105329190611b77565b905060008167ffffffffffffffff81111561054f5761054f611b90565b604051908082528060200260200182016040528015610578578160200160208202803683370190505b5090506000805b83821015610642576003546040516331a9108f60e11b8152600481018390526001600160a01b03888116921690636352211e90602401602060405180830381865afa1580156105d2573d6000803e3d6000fd5b505050506040513d601f19601f820116820180604052508101906105f69190611ba6565b6001600160a01b031603610630578083838151811061061757610617611bc3565b60209081029190910101528161062c81611bd9565b9250505b8061063a81611bd9565b91505061057f565b5090949350505050565b610654611843565b6003546040516331a9108f60e11b81526004810183905233916001600160a01b031690636352211e90602401602060405180830381865afa15801561069d573d6000803e3d6000fd5b505050506040513d601f19601f820116820180604052508101906106c19190611ba6565b6001600160a01b0316146107155760405162461bcd60e51b8152602060048201526016602482015275165bdd48191bdb89dd081bdddb881d1a1a5cc813919560521b60448201526064015b60405180910390fd5b6003546040516323b872dd60e01b81526001600160a01b03909116906323b872dd9061074990339030908690600401611bf2565b600060405180830381600087803b15801561076357600080fd5b505af1158015610777573d6000803e3d6000fd5b505033600090815260046020526040902060018101549092501590506107b9576107a033610caf565b8160040160008282546107b39190611b64565b90915550505b3360009081526005602090815260408220805460018101825590835290822001839055428083556006830155600282018054916107f583611bd9565b909155505060405182815233907f1c4b8380f61aea3d5d98cbadaf2e6b2e4f3d8ca8c0fce1290b26ac267158745f9060200160405180910390a25061083960018055565b50565b6001600160a01b0381166000908152600460205260408120600181015415806108685750428160030154105b156108765750600092915050565b60038101546104b89042611c16565b61088d611843565b33600090815260046020526040902060018101546108e45760405162461bcd60e51b81526020600482015260146024820152734e6f207374616b6520746f20776974686472617760601b604482015260640161070c565b80600301544210156109435760405162461bcd60e51b815260206004820152602260248201527f4c6f636b6564206163636f756e742063616e6e6f7420626520776974686472616044820152613bb760f11b606482015260840161070c565b6000816004015461095333610caf565b61095d9190611b64565b600254600184015460405163a9059cbb60e01b815233600482015260248101919091529192506001600160a01b03169063a9059cbb906044016020604051808303816000875af11580156109b5573d6000803e3d6000fd5b505050506040513d601f19601f820116820180604052508101906109d99190611c29565b610a1c5760405162461bcd60e51b8152602060048201526014602482015273105b5bdd5b9d08151c985b9cd9995c8819985a5b60621b604482015260640161070c565b6002546040516315490ebb60e01b8152336004820152602481018390526001600160a01b03909116906315490ebb906044016020604051808303816000875af1158015610a6d573d6000803e3d6000fd5b505050506040513d601f19601f82011682018060405250810190610a919190611c29565b610add5760405162461bcd60e51b815260206004820152601a60248201527f526577617264205472616e73666572526577617264206661696c000000000000604482015260640161070c565b60005b33600090815260056020526040902054811015610bd357336000908152600560205260408120805483908110610b1857610b18611bc3565b6000918252602090912001546003546040516323b872dd60e01b81529192506001600160a01b0316906323b872dd90610b5990309033908690600401611bf2565b600060405180830381600087803b158015610b7357600080fd5b505af1158015610b87573d6000803e3d6000fd5b50506040518381523392507f02fca8621ed1e1dbe5d940fbef04efcfecbbb59321dffea20b5bf1d9d33d2ec4915060200160405180910390a25080610bcb81611bd9565b915050610ae0565b506001820154604080519182526020820183905233917fcf0a6e5424f1be29da85b3a1a951b7710a56783e142e3f2a2716c579920090c3910160405180910390a260405181815233907f106f923f993c2149d49b4255ff723acafa1f2d94393f561d3eda32ae348f72419060200160405180910390a2336000908152600560205260408120610c61916119cf565b50503360009081526004602081905260408220828155600181018390556002810183905560038101839055908101829055600581018290556006810182905560070155610cad60018055565b565b6001600160a01b03811660009081526004602052604081206001810154610d2f5760405162461bcd60e51b815260206004820152602e60248201527f63616c63756c6174655265776172643a20616d6f756e74206d7573742062652060448201526d067726561746572207468616e20360941b606482015260840161070c565b8054600090610d3e9042611c16565b905060008083600601541115610dea576000610d9084600001548560060154610d679190611c16565b6008548660010154610d799190611b47565b610d839190611b47565b6001640757b12c0061186d565b90506000610dd5856006015442610da79190611c16565b8660020154600954610db99190611b47565b600854610dc69190611b64565b8760010154610d799190611b47565b9050610de18183611b64565b92505050610e1a565b610e17826008548560010154610e009190611b47565b610e0a9190611b47565b600164496cebb80061186d565b90505b949350505050565b6001600160a01b0381166000908152600460208190526040822060018101549181015491929081908190610e5587610caf565b935080600301549250806002015491505091939590929450565b6002546040516370a0823160e01b81523060048201526000916001600160a01b0316906370a0823190602401602060405180830381865afa158015610eb8573d6000803e3d6000fd5b505050506040513d601f19601f82011682018060405250810190610edc9190611b77565b905090565b610ee9611922565b610cad600061194f565b610efb611843565b33600090815260046020526040902081610f575760405162461bcd60e51b815260206004820152601a60248201527f4e4654206d7573742062652067726561746572207468616e2030000000000000604482015260640161070c565b6000816002015411610fa15760405162461bcd60e51b81526020600482015260136024820152724e6f204e46545320746f20776974686472617760681b604482015260640161070c565b60008060005b848110156111cf576000868683818110610fc357610fc3611bc3565b90506020020135905060005b856002015481101561117e57336000908152600560205260409020805483919083908110610fff57610fff611bc3565b90600052602060002001540361116c576003546040516323b872dd60e01b81526001600160a01b03909116906323b872dd9061104390309033908790600401611bf2565b600060405180830381600087803b15801561105d57600080fd5b505af1158015611071573d6000803e3d6000fd5b505033600090815260056020526040902080549092506110949150600190611c16565b815481106110a4576110a4611bc3565b6000918252602080832090910154338352600590915260409091208054839081106110d1576110d1611bc3565b60009182526020808320909101929092553381526005909152604090208054806110fd576110fd611c4b565b60019003818190600052602060002001600090559055336001600160a01b03167f02fca8621ed1e1dbe5d940fbef04efcfecbbb59321dffea20b5bf1d9d33d2ec48360405161114e91815260200190565b60405180910390a28461116081611bd9565b9550506001935061117e565b8061117681611bd9565b915050610fcf565b50826111bc5760405162461bcd60e51b815260206004820152600d60248201526c139195081b9bdd08199bdd5b99609a1b604482015260640161070c565b50806111c781611bd9565b915050610fa7565b50818360020160008282546111e49190611c16565b90915550506006830154156111fa574260068401555b50505061120660018055565b5050565b611212611843565b600081116112715760405162461bcd60e51b815260206004820152602660248201527f6465706f7369743a20616d6f756e74206d75737420626520677265617465722060448201526507468616e20360d41b606482015260840161070c565b6002546040516323b872dd60e01b81526001600160a01b03909116906323b872dd906112a590339030908690600401611bf2565b6020604051808303816000875af11580156112c4573d6000803e3d6000fd5b505050506040513d601f19601f820116820180604052508101906112e89190611c29565b6113245760405162461bcd60e51b815260206004820152600d60248201526c151c985b9cd9995c8819985a5b609a1b604482015260640161070c565b33600090815260046020526040902060018101541561136557600061134833610caf565b90508082600401600082825461135e9190611b64565b9091555050505b818160010160008282546113799190611b64565b90915550504280825560075461138e91611b64565b8160030181905550818160050160008282546113aa9190611b64565b90915550506006810154156113c0574260068201555b6000600a5482600501546113d49190611c77565b336000908152600660205260408120549192509082116113f557600061140f565b3360009081526006602052604090205461140f9083611c16565b905060005b818110156114d6576003546040516340d097c360e01b81523360048201526000916001600160a01b0316906340d097c3906024016020604051808303816000875af1158015611467573d6000803e3d6000fd5b505050506040513d601f19601f8201168201806040525081019061148b9190611b77565b60405181815290915033907f4cc0a9c4a99ddc700de1af2c9f916a7cbfdb71f14801ccff94061ad1ef8a80409060200160405180910390a250806114ce81611bd9565b915050611414565b5033600090815260066020526040812080548392906114f6908490611b64565b909155505060405184815233907f2da466a7b24304f47e87fa2e1e5a81b9831ce54fec19055ce277ca2f39ba42c49060200160405180910390a250505061083960018055565b611544611843565b33600090815260046020526040902060018101546115b05760405162461bcd60e51b8152602060048201526024808201527f5374616b656420616d6f756e74206d75737420626520677265617465722074686044820152630616e20360e41b606482015260840161070c565b600081600401546115c033610caf565b6115ca9190611b64565b9050600081116116115760405162461bcd60e51b81526020600482015260126024820152714e6f2072657761726420746f20636c61696d60701b604482015260640161070c565b6002546040516315490ebb60e01b8152336004820152602481018390526001600160a01b03909116906315490ebb906044016020604051808303816000875af1158015611662573d6000803e3d6000fd5b505050506040513d601f19601f820116820180604052508101906116869190611c29565b6116cb5760405162461bcd60e51b815260206004820152601660248201527514995dd85c99081d1c985b9cd9995c8819985a5b195960521b604482015260640161070c565b600060048301554282556006820154156116e6574260068301555b60405181815233907f106f923f993c2149d49b4255ff723acafa1f2d94393f561d3eda32ae348f72419060200160405180910390a25050610cad60018055565b6001600160a01b03811660009081526005602090815260409182902080548351818402810184019094528084526060939283018282801561178657602002820191906000526020600020905b815481526020019060010190808311611772575b50505050509050919050565b61179a611922565b600881905560405181815233907fe047f6e1fc16c737c75900e8eff62a07e54eadfb6ee93bfe413ad4c17fa49c929060200160405180910390a250565b6117df611922565b6001600160a01b03811661180957604051631e4fbdf760e01b81526000600482015260240161070c565b6108398161194f565b6005602052816000526040600020818154811061182e57600080fd5b90600052602060002001600091509150505481565b60026001540361186657604051633ee5aeb560e01b815260040160405180910390fd5b6002600155565b600080600061187c868661199f565b91509150816000036118a15783818161189757611897611c61565b04925050506104b8565b8184116118b8576118b860038515026011186119bd565b6000848688096000868103871696879004966002600389028118808a02820302808a02820302808a02820302808a02820302808a02820302808a02909103029181900381900460010185841190960395909502919093039390930492909217029150509392505050565b6000546001600160a01b03163314610cad5760405163118cdaa760e01b815233600482015260240161070c565b600080546001600160a01b038381166001600160a01b0319831681178455604051919092169283917f8be0079c531659141344cd1fd0a4f28419497f9722a3daafe3b4186f6b6457e09190a35050565b60008060001983850993909202808410938190039390930393915050565b634e487b71600052806020526024601cfd5b508054600082559060005260206000209081019061083991905b808211156119fd57600081556001016119e9565b5090565b6001600160a01b038116811461083957600080fd5b600060208284031215611a2857600080fd5b81356104b881611a01565b6020808252825182820181905260009190848201906040850190845b81811015611a6b57835183529284019291840191600101611a4f565b50909695505050505050565b600060208284031215611a8957600080fd5b5035919050565b60008060208385031215611aa357600080fd5b823567ffffffffffffffff80821115611abb57600080fd5b818501915085601f830112611acf57600080fd5b813581811115611ade57600080fd5b8660208260051b8501011115611af357600080fd5b60209290920196919550909350505050565b60008060408385031215611b1857600080fd5b8235611b2381611a01565b946020939093013593505050565b634e487b7160e01b600052601160045260246000fd5b8082028115828204841417611b5e57611b5e611b31565b92915050565b80820180821115611b5e57611b5e611b31565b600060208284031215611b8957600080fd5b5051919050565b634e487b7160e01b600052604160045260246000fd5b600060208284031215611bb857600080fd5b81516104b881611a01565b634e487b7160e01b600052603260045260246000fd5b600060018201611beb57611beb611b31565b5060010190565b6001600160a01b039384168152919092166020820152604081019190915260600190565b81810381811115611b5e57611b5e611b31565b600060208284031215611c3b57600080fd5b815180151581146104b857600080fd5b634e487b7160e01b600052603160045260246000fd5b634e487b7160e01b600052601260045260246000fd5b600082611c9457634e487b7160e01b600052601260045260246000fd5b50049056fea2646970667358221220cbf293567181d1794694ea8c3900766ae54328726d353177d2a2f0149d25308464736f6c63430008140033",
  "linkReferences": {},
  "deployedLinkReferences": {}
}