{
  "_format": "hh-sol-artifact-1",
  "contractName": "Staking",
  "sourceName": "contracts/Staking.sol",
  "abi": [
    {
      "inputs": [
        {
          "internalType": "address",
          "name": "tokenA",
          "type": "address"
        },
        {
          "internalType": "address",
          "name": "nftB",
          "type": "address"
        }
      ],
      "stateMutability": "nonpayable",
      "type": "constructor"
    },
    {
      "inputs": [
        {
          "internalType": "address",
          "name": "owner",
          "type": "address"
        }
      ],
      "name": "OwnableInvalidOwner",
      "type": "error"
    },
    {
      "inputs": [
        {
          "internalType": "address",
          "name": "account",
          "type": "address"
        }
      ],
      "name": "OwnableUnauthorizedAccount",
      "type": "error"
    },
    {
      "inputs": [],
      "name": "ReentrancyGuardReentrantCall",
      "type": "error"
    },
    {
      "anonymous": false,
      "inputs": [
        {
          "indexed": true,
          "internalType": "address",
          "name": "user",
          "type": "address"
        },
        {
          "indexed": false,
          "internalType": "uint256",
          "name": "newBaseAPR",
          "type": "uint256"
        }
      ],
      "name": "APRUpdated",
      "type": "event"
    },
    {
      "anonymous": false,
      "inputs": [
        {
          "indexed": true,
          "internalType": "address",
          "name": "user",
          "type": "address"
        },
        {
          "indexed": false,
          "internalType": "uint256",
          "name": "amount",
          "type": "uint256"
        }
      ],
      "name": "Deposited",
      "type": "event"
    },
    {
      "anonymous": false,
      "inputs": [
        {
          "indexed": true,
          "internalType": "address",
          "name": "user",
          "type": "address"
        },
        {
          "indexed": false,
          "internalType": "uint256",
          "name": "Id",
          "type": "uint256"
        }
      ],
      "name": "NFTDeposited",
      "type": "event"
    },
    {
      "anonymous": false,
      "inputs": [
        {
          "indexed": true,
          "internalType": "address",
          "name": "user",
          "type": "address"
        },
        {
          "indexed": false,
          "internalType": "uint256",
          "name": "tokenId",
          "type": "uint256"
        }
      ],
      "name": "NFTMinted",
      "type": "event"
    },
    {
      "anonymous": false,
      "inputs": [
        {
          "indexed": true,
          "internalType": "address",
          "name": "user",
          "type": "address"
        },
        {
          "indexed": false,
          "internalType": "uint256",
          "name": "tokenId",
          "type": "uint256"
        }
      ],
      "name": "NFTsWithDrawn",
      "type": "event"
    },
    {
      "anonymous": false,
      "inputs": [
        {
          "indexed": true,
          "internalType": "address",
          "name": "previousOwner",
          "type": "address"
        },
        {
          "indexed": true,
          "internalType": "address",
          "name": "newOwner",
          "type": "address"
        }
      ],
      "name": "OwnershipTransferred",
      "type": "event"
    },
    {
      "anonymous": false,
      "inputs": [
        {
          "indexed": true,
          "internalType": "address",
          "name": "user",
          "type": "address"
        },
        {
          "indexed": false,
          "internalType": "uint256",
          "name": "reward",
          "type": "uint256"
        }
      ],
      "name": "RewardClaimed",
      "type": "event"
    },
    {
      "anonymous": false,
      "inputs": [
        {
          "indexed": true,
          "internalType": "address",
          "name": "user",
          "type": "address"
        },
        {
          "indexed": false,
          "internalType": "uint256",
          "name": "amount",
          "type": "uint256"
        },
        {
          "indexed": false,
          "internalType": "uint256",
          "name": "reward",
          "type": "uint256"
        }
      ],
      "name": "WithDrawn",
      "type": "event"
    },
    {
      "inputs": [],
      "name": "APR",
      "outputs": [
        {
          "internalType": "uint256",
          "name": "",
          "type": "uint256"
        }
      ],
      "stateMutability": "view",
      "type": "function"
    },
    {
      "inputs": [],
      "name": "APR_Bonus",
      "outputs": [
        {
          "internalType": "uint256",
          "name": "",
          "type": "uint256"
        }
      ],
      "stateMutability": "view",
      "type": "function"
    },
    {
      "inputs": [],
      "name": "NFT_PREREQUISITE",
      "outputs": [
        {
          "internalType": "uint256",
          "name": "",
          "type": "uint256"
        }
      ],
      "stateMutability": "view",
      "type": "function"
    },
    {
      "inputs": [],
      "name": "TIME_LOCK",
      "outputs": [
        {
          "internalType": "uint256",
          "name": "",
          "type": "uint256"
        }
      ],
      "stateMutability": "view",
      "type": "function"
    },
    {
      "inputs": [
        {
          "internalType": "address",
          "name": "user",
          "type": "address"
        }
      ],
      "name": "_calculateReward",
      "outputs": [
        {
          "internalType": "uint256",
          "name": "",
          "type": "uint256"
        }
      ],
      "stateMutability": "view",
      "type": "function"
    },
    {
      "inputs": [],
      "name": "_nftB",
      "outputs": [
        {
          "internalType": "contract NFTB",
          "name": "",
          "type": "address"
        }
      ],
      "stateMutability": "view",
      "type": "function"
    },
    {
      "inputs": [],
      "name": "_tokenA",
      "outputs": [
        {
          "internalType": "contract TokenA",
          "name": "",
          "type": "address"
        }
      ],
      "stateMutability": "view",
      "type": "function"
    },
    {
      "inputs": [],
      "name": "claimReward",
      "outputs": [],
      "stateMutability": "nonpayable",
      "type": "function"
    },
    {
      "inputs": [
        {
          "internalType": "uint256",
          "name": "amount",
          "type": "uint256"
        }
      ],
      "name": "deposit",
      "outputs": [],
      "stateMutability": "nonpayable",
      "type": "function"
    },
    {
      "inputs": [],
      "name": "getContractBalance",
      "outputs": [
        {
          "internalType": "uint256",
          "name": "",
          "type": "uint256"
        }
      ],
      "stateMutability": "view",
      "type": "function"
    },
    {
      "inputs": [
        {
          "internalType": "address",
          "name": "user",
          "type": "address"
        }
      ],
      "name": "getCurrentAPR",
      "outputs": [
        {
          "internalType": "uint256",
          "name": "",
          "type": "uint256"
        }
      ],
      "stateMutability": "view",
      "type": "function"
    },
    {
      "inputs": [
        {
          "internalType": "address",
          "name": "user",
          "type": "address"
        }
      ],
      "name": "getLockTimeRemaining",
      "outputs": [
        {
          "internalType": "uint256",
          "name": "",
          "type": "uint256"
        }
      ],
      "stateMutability": "view",
      "type": "function"
    },
    {
      "inputs": [
        {
          "internalType": "address",
          "name": "user",
          "type": "address"
        }
      ],
      "name": "getNFTInfo",
      "outputs": [
        {
          "internalType": "uint256",
          "name": "",
          "type": "uint256"
        }
      ],
      "stateMutability": "view",
      "type": "function"
    },
    {
      "inputs": [
        {
          "internalType": "address",
          "name": "user",
          "type": "address"
        }
      ],
      "name": "getNFTListByOwner",
      "outputs": [
        {
          "internalType": "uint256[]",
          "name": "",
          "type": "uint256[]"
        }
      ],
      "stateMutability": "view",
      "type": "function"
    },
    {
      "inputs": [
        {
          "internalType": "address",
          "name": "user",
          "type": "address"
        }
      ],
      "name": "getStakeDetail",
      "outputs": [
        {
          "internalType": "uint256",
          "name": "amount",
          "type": "uint256"
        },
        {
          "internalType": "uint256",
          "name": "pendingReward",
          "type": "uint256"
        },
        {
          "internalType": "uint256",
          "name": "calculatedReward",
          "type": "uint256"
        },
        {
          "internalType": "uint256",
          "name": "lockEndTime",
          "type": "uint256"
        },
        {
          "internalType": "uint256",
          "name": "nftCount",
          "type": "uint256"
        }
      ],
      "stateMutability": "view",
      "type": "function"
    },
    {
      "inputs": [
        {
          "internalType": "address",
          "name": "user",
          "type": "address"
        }
      ],
      "name": "getStakeNFTCount",
      "outputs": [
        {
          "internalType": "uint256",
          "name": "",
          "type": "uint256"
        }
      ],
      "stateMutability": "view",
      "type": "function"
    },
    {
      "inputs": [
        {
          "internalType": "address",
          "name": "",
          "type": "address"
        }
      ],
      "name": "mintedNFTs",
      "outputs": [
        {
          "internalType": "uint256",
          "name": "",
          "type": "uint256"
        }
      ],
      "stateMutability": "view",
      "type": "function"
    },
    {
      "inputs": [
        {
          "internalType": "uint256",
          "name": "tokenId",
          "type": "uint256"
        }
      ],
      "name": "nftDeposit",
      "outputs": [],
      "stateMutability": "nonpayable",
      "type": "function"
    },
    {
      "inputs": [],
      "name": "owner",
      "outputs": [
        {
          "internalType": "address",
          "name": "",
          "type": "address"
        }
      ],
      "stateMutability": "view",
      "type": "function"
    },
    {
      "inputs": [],
      "name": "renounceOwnership",
      "outputs": [],
      "stateMutability": "nonpayable",
      "type": "function"
    },
    {
      "inputs": [
        {
          "internalType": "address",
          "name": "",
          "type": "address"
        },
        {
          "internalType": "uint256",
          "name": "",
          "type": "uint256"
        }
      ],
      "name": "stakedNFTs",
      "outputs": [
        {
          "internalType": "uint256",
          "name": "",
          "type": "uint256"
        }
      ],
      "stateMutability": "view",
      "type": "function"
    },
    {
      "inputs": [
        {
          "internalType": "address",
          "name": "",
          "type": "address"
        }
      ],
      "name": "stakes",
      "outputs": [
        {
          "internalType": "uint256",
          "name": "timestamp",
          "type": "uint256"
        },
        {
          "internalType": "uint256",
          "name": "amount",
          "type": "uint256"
        },
        {
          "internalType": "uint256",
          "name": "nftCount",
          "type": "uint256"
        },
        {
          "internalType": "uint256",
          "name": "lockEndTime",
          "type": "uint256"
        },
        {
          "internalType": "uint256",
          "name": "pendingReward",
          "type": "uint256"
        },
        {
          "internalType": "uint256",
          "name": "totalStakedAmount",
          "type": "uint256"
        },
        {
          "internalType": "uint256",
          "name": "nftDepositTime",
          "type": "uint256"
        },
        {
          "internalType": "uint256",
          "name": "mintedNFTCount",
          "type": "uint256"
        }
      ],
      "stateMutability": "view",
      "type": "function"
    },
    {
      "inputs": [
        {
          "internalType": "address",
          "name": "newOwner",
          "type": "address"
        }
      ],
      "name": "transferOwnership",
      "outputs": [],
      "stateMutability": "nonpayable",
      "type": "function"
    },
    {
      "inputs": [
        {
          "internalType": "uint256",
          "name": "newAPR",
          "type": "uint256"
        }
      ],
      "name": "updateAPR",
      "outputs": [],
      "stateMutability": "nonpayable",
      "type": "function"
    },
    {
      "inputs": [],
      "name": "withDrawn",
      "outputs": [],
      "stateMutability": "nonpayable",
      "type": "function"
    },
    {
      "inputs": [
        {
          "internalType": "uint256[]",
          "name": "tokenIds",
          "type": "uint256[]"
        }
      ],
      "name": "withDrawnNFT",
      "outputs": [],
      "stateMutability": "nonpayable",
      "type": "function"
    }
  ],
  "bytecode": "0x6080604052601e60075561032060085560c860095569d3c21bcecceda1000000600a553480156200002f57600080fd5b5060405162001da538038062001da5833981016040819052620000529162000128565b33806200007957604051631e4fbdf760e01b81526000600482015260240160405180910390fd5b6200008481620000bb565b5060018055600280546001600160a01b039384166001600160a01b0319918216179091556003805492909316911617905562000160565b600080546001600160a01b038381166001600160a01b0319831681178455604051919092169283917f8be0079c531659141344cd1fd0a4f28419497f9722a3daafe3b4186f6b6457e09190a35050565b80516001600160a01b03811681146200012357600080fd5b919050565b600080604083850312156200013c57600080fd5b62000147836200010b565b915062000157602084016200010b565b90509250929050565b611c3580620001706000396000f3fe608060405234801561001057600080fd5b506004361061018e5760003560e01c80639ae3b518116100de578063bd30558e11610097578063f2fde38b11610071578063f2fde38b146103fc578063f3c4469f1461040f578063f706004814610422578063f821b4951461043557600080fd5b8063bd30558e146103d7578063e0a09c68146103e0578063e7e2629e146103e957600080fd5b80639ae3b5181461036d578063af06e40e14610380578063afea263914610389578063b6b55f251461039c578063b88a802f146103af578063ba060bed146103b757600080fd5b80633c6d5aab1161014b5780634ba76eee116101255780634ba76eee146102fd5780636f9fb98a14610338578063715018a6146103405780638da5cb5b1461034857600080fd5b80633c6d5aab146102b657806348930d11146102be578063497f285d146102ea57600080fd5b806301d650e114610193578063095c7783146101b957806316934fc4146101e25780631ffc480f1461026e578063279d9afa1461028e5780633823ec3b146102a3575b600080fd5b6101a66101a136600461197c565b61043e565b6040519081526020015b60405180910390f35b6101a66101c736600461197c565b6001600160a01b031660009081526006602052604090205490565b6102336101f036600461197c565b6004602081905260009182526040909120805460018201546002830154600384015494840154600585015460068601546007909601549496939592949192909188565b604080519889526020890197909752958701949094526060860192909252608085015260a084015260c083015260e0820152610100016101b0565b61028161027c36600461197c565b610491565b6040516101b09190611999565b6102a161029c3660046119dd565b61061e565b005b6101a66102b136600461197c565b61080e565b6102a1610857565b6101a66102cc36600461197c565b6001600160a01b031660009081526004602052604090206002015490565b6101a66102f836600461197c565b610c81565b61031061030b36600461197c565b610df4565b604080519586526020860194909452928401919091526060830152608082015260a0016101b0565b6101a6610e41565b6102a1610eb3565b6000546001600160a01b03165b6040516001600160a01b0390911681526020016101b0565b600354610355906001600160a01b031681565b6101a660095481565b6102a16103973660046119f6565b610ec5565b6102a16103aa3660046119dd565b6111dc565b6102a161150e565b6101a66103c536600461197c565b60066020526000908152604090205481565b6101a660085481565b6101a660075481565b6102a16103f73660046119dd565b6116f8565b6102a161040a36600461197c565b61173d565b600254610355906001600160a01b031681565b6101a6610430366004611a6b565b611778565b6101a6600a5481565b6001600160a01b03811660009081526004602052604081206002810154820361046b575050600854919050565b600954816002015461047d9190611aad565b60085461048a9190611aca565b9392505050565b6003546040516370a0823160e01b81526001600160a01b0383811660048301526060926000929116906370a0823190602401602060405180830381865afa1580156104e0573d6000803e3d6000fd5b505050506040513d601f19601f820116820180604052508101906105049190611add565b905060008167ffffffffffffffff81111561052157610521611af6565b60405190808252806020026020018201604052801561054a578160200160208202803683370190505b5090506000805b83821015610614576003546040516331a9108f60e11b8152600481018390526001600160a01b03888116921690636352211e90602401602060405180830381865afa1580156105a4573d6000803e3d6000fd5b505050506040513d601f19601f820116820180604052508101906105c89190611b0c565b6001600160a01b03160361060257808383815181106105e9576105e9611b29565b6020908102919091010152816105fe81611b3f565b9250505b8061060c81611b3f565b915050610551565b5090949350505050565b6106266117a9565b6003546040516331a9108f60e11b81526004810183905233916001600160a01b031690636352211e90602401602060405180830381865afa15801561066f573d6000803e3d6000fd5b505050506040513d601f19601f820116820180604052508101906106939190611b0c565b6001600160a01b0316146106e75760405162461bcd60e51b8152602060048201526016602482015275165bdd48191bdb89dd081bdddb881d1a1a5cc813919560521b60448201526064015b60405180910390fd5b6003546040516323b872dd60e01b81526001600160a01b03909116906323b872dd9061071b90339030908690600401611b58565b600060405180830381600087803b15801561073557600080fd5b505af1158015610749573d6000803e3d6000fd5b5050336000908152600460205260409020600181015490925015905061078b5761077233610c81565b8160040160008282546107859190611aca565b90915550505b3360009081526005602090815260408220805460018101825590835290822001839055428083556006830155600282018054916107c783611b3f565b909155505060405182815233907f1c4b8380f61aea3d5d98cbadaf2e6b2e4f3d8ca8c0fce1290b26ac267158745f9060200160405180910390a25061080b60018055565b50565b6001600160a01b03811660009081526004602052604081206001810154158061083a5750428160030154105b156108485750600092915050565b600381015461048a9042611b7c565b61085f6117a9565b33600090815260046020526040902060018101546108b65760405162461bcd60e51b81526020600482015260146024820152734e6f207374616b6520746f20776974686472617760601b60448201526064016106de565b80600301544210156109155760405162461bcd60e51b815260206004820152602260248201527f4c6f636b6564206163636f756e742063616e6e6f7420626520776974686472616044820152613bb760f11b60648201526084016106de565b6000816004015461092533610c81565b61092f9190611aca565b600254600184015460405163a9059cbb60e01b815233600482015260248101919091529192506001600160a01b03169063a9059cbb906044016020604051808303816000875af1158015610987573d6000803e3d6000fd5b505050506040513d601f19601f820116820180604052508101906109ab9190611b8f565b6109ee5760405162461bcd60e51b8152602060048201526014602482015273105b5bdd5b9d08151c985b9cd9995c8819985a5b60621b60448201526064016106de565b6002546040516315490ebb60e01b8152336004820152602481018390526001600160a01b03909116906315490ebb906044016020604051808303816000875af1158015610a3f573d6000803e3d6000fd5b505050506040513d601f19601f82011682018060405250810190610a639190611b8f565b610aaf5760405162461bcd60e51b815260206004820152601a60248201527f526577617264205472616e73666572526577617264206661696c00000000000060448201526064016106de565b60005b33600090815260056020526040902054811015610ba557336000908152600560205260408120805483908110610aea57610aea611b29565b6000918252602090912001546003546040516323b872dd60e01b81529192506001600160a01b0316906323b872dd90610b2b90309033908690600401611b58565b600060405180830381600087803b158015610b4557600080fd5b505af1158015610b59573d6000803e3d6000fd5b50506040518381523392507f02fca8621ed1e1dbe5d940fbef04efcfecbbb59321dffea20b5bf1d9d33d2ec4915060200160405180910390a25080610b9d81611b3f565b915050610ab2565b506001820154604080519182526020820183905233917fcf0a6e5424f1be29da85b3a1a951b7710a56783e142e3f2a2716c579920090c3910160405180910390a260405181815233907f106f923f993c2149d49b4255ff723acafa1f2d94393f561d3eda32ae348f72419060200160405180910390a2336000908152600560205260408120610c3391611935565b50503360009081526004602081905260408220828155600181018390556002810183905560038101839055908101829055600581018290556006810182905560070155610c7f60018055565b565b6001600160a01b03811660009081526004602052604081206001810154610d015760405162461bcd60e51b815260206004820152602e60248201527f63616c63756c6174655265776172643a20616d6f756e74206d7573742062652060448201526d067726561746572207468616e20360941b60648201526084016106de565b8054600090610d109042611b7c565b905060008083600601541115610dbc576000610d6284600001548560060154610d399190611b7c565b6008548660010154610d4b9190611aad565b610d559190611aad565b6001640757b12c006117d3565b90506000610da7856006015442610d799190611b7c565b8660020154600954610d8b9190611aad565b600854610d989190611aca565b8760010154610d4b9190611aad565b9050610db38183611aca565b92505050610dec565b610de9826008548560010154610dd29190611aad565b610ddc9190611aad565b600164496cebb8006117d3565b90505b949350505050565b6001600160a01b0381166000908152600460208190526040822060018101549181015491929081908190610e2787610c81565b935080600301549250806002015491505091939590929450565b6002546040516370a0823160e01b81523060048201526000916001600160a01b0316906370a0823190602401602060405180830381865afa158015610e8a573d6000803e3d6000fd5b505050506040513d601f19601f82011682018060405250810190610eae9190611add565b905090565b610ebb611888565b610c7f60006118b5565b610ecd6117a9565b33600090815260046020526040902081610f295760405162461bcd60e51b815260206004820152601a60248201527f4e4654206d7573742062652067726561746572207468616e203000000000000060448201526064016106de565b6000816002015411610f735760405162461bcd60e51b81526020600482015260136024820152724e6f204e46545320746f20776974686472617760681b60448201526064016106de565b60008060005b848110156111a1576000868683818110610f9557610f95611b29565b90506020020135905060005b856002015481101561115057336000908152600560205260409020805483919083908110610fd157610fd1611b29565b90600052602060002001540361113e576003546040516323b872dd60e01b81526001600160a01b03909116906323b872dd9061101590309033908790600401611b58565b600060405180830381600087803b15801561102f57600080fd5b505af1158015611043573d6000803e3d6000fd5b505033600090815260056020526040902080549092506110669150600190611b7c565b8154811061107657611076611b29565b6000918252602080832090910154338352600590915260409091208054839081106110a3576110a3611b29565b60009182526020808320909101929092553381526005909152604090208054806110cf576110cf611bb1565b60019003818190600052602060002001600090559055336001600160a01b03167f02fca8621ed1e1dbe5d940fbef04efcfecbbb59321dffea20b5bf1d9d33d2ec48360405161112091815260200190565b60405180910390a28461113281611b3f565b95505060019350611150565b8061114881611b3f565b915050610fa1565b508261118e5760405162461bcd60e51b815260206004820152600d60248201526c139195081b9bdd08199bdd5b99609a1b60448201526064016106de565b508061119981611b3f565b915050610f79565b50818360020160008282546111b69190611b7c565b90915550506006830154156111cc574260068401555b5050506111d860018055565b5050565b6111e46117a9565b600081116112435760405162461bcd60e51b815260206004820152602660248201527f6465706f7369743a20616d6f756e74206d75737420626520677265617465722060448201526507468616e20360d41b60648201526084016106de565b6002546040516323b872dd60e01b81526001600160a01b03909116906323b872dd9061127790339030908690600401611b58565b6020604051808303816000875af1158015611296573d6000803e3d6000fd5b505050506040513d601f19601f820116820180604052508101906112ba9190611b8f565b6112f65760405162461bcd60e51b815260206004820152600d60248201526c151c985b9cd9995c8819985a5b609a1b60448201526064016106de565b33600090815260046020526040902060018101541561133757600061131a33610c81565b9050808260040160008282546113309190611aca565b9091555050505b8181600101600082825461134b9190611aca565b90915550504280825560075461136091611aca565b81600301819055508181600501600082825461137c9190611aca565b9091555050600681015415611392574260068201555b6000600a5482600501546113a69190611bdd565b336000908152600660205260408120549192509082116113c75760006113e1565b336000908152600660205260409020546113e19083611b7c565b905060005b818110156114a8576003546040516340d097c360e01b81523360048201526000916001600160a01b0316906340d097c3906024016020604051808303816000875af1158015611439573d6000803e3d6000fd5b505050506040513d601f19601f8201168201806040525081019061145d9190611add565b60405181815290915033907f4cc0a9c4a99ddc700de1af2c9f916a7cbfdb71f14801ccff94061ad1ef8a80409060200160405180910390a250806114a081611b3f565b9150506113e6565b5033600090815260066020526040812080548392906114c8908490611aca565b909155505060405184815233907f2da466a7b24304f47e87fa2e1e5a81b9831ce54fec19055ce277ca2f39ba42c49060200160405180910390a250505061080b60018055565b6115166117a9565b33600090815260046020526040902060018101546115825760405162461bcd60e51b8152602060048201526024808201527f5374616b656420616d6f756e74206d75737420626520677265617465722074686044820152630616e20360e41b60648201526084016106de565b6000816004015461159233610c81565b61159c9190611aca565b9050600081116115e35760405162461bcd60e51b81526020600482015260126024820152714e6f2072657761726420746f20636c61696d60701b60448201526064016106de565b6002546040516315490ebb60e01b8152336004820152602481018390526001600160a01b03909116906315490ebb906044016020604051808303816000875af1158015611634573d6000803e3d6000fd5b505050506040513d601f19601f820116820180604052508101906116589190611b8f565b61169d5760405162461bcd60e51b815260206004820152601660248201527514995dd85c99081d1c985b9cd9995c8819985a5b195960521b60448201526064016106de565b600060048301554282556006820154156116b8574260068301555b60405181815233907f106f923f993c2149d49b4255ff723acafa1f2d94393f561d3eda32ae348f72419060200160405180910390a25050610c7f60018055565b611700611888565b600881905560405181815233907fe047f6e1fc16c737c75900e8eff62a07e54eadfb6ee93bfe413ad4c17fa49c929060200160405180910390a250565b611745611888565b6001600160a01b03811661176f57604051631e4fbdf760e01b8152600060048201526024016106de565b61080b816118b5565b6005602052816000526040600020818154811061179457600080fd5b90600052602060002001600091509150505481565b6002600154036117cc57604051633ee5aeb560e01b815260040160405180910390fd5b6002600155565b60008060006117e28686611905565b9150915081600003611807578381816117fd576117fd611bc7565b049250505061048a565b81841161181e5761181e6003851502601118611923565b6000848688096000868103871696879004966002600389028118808a02820302808a02820302808a02820302808a02820302808a02820302808a02909103029181900381900460010185841190960395909502919093039390930492909217029150509392505050565b6000546001600160a01b03163314610c7f5760405163118cdaa760e01b81523360048201526024016106de565b600080546001600160a01b038381166001600160a01b0319831681178455604051919092169283917f8be0079c531659141344cd1fd0a4f28419497f9722a3daafe3b4186f6b6457e09190a35050565b60008060001983850993909202808410938190039390930393915050565b634e487b71600052806020526024601cfd5b508054600082559060005260206000209081019061080b91905b80821115611963576000815560010161194f565b5090565b6001600160a01b038116811461080b57600080fd5b60006020828403121561198e57600080fd5b813561048a81611967565b6020808252825182820181905260009190848201906040850190845b818110156119d1578351835292840192918401916001016119b5565b50909695505050505050565b6000602082840312156119ef57600080fd5b5035919050565b60008060208385031215611a0957600080fd5b823567ffffffffffffffff80821115611a2157600080fd5b818501915085601f830112611a3557600080fd5b813581811115611a4457600080fd5b8660208260051b8501011115611a5957600080fd5b60209290920196919550909350505050565b60008060408385031215611a7e57600080fd5b8235611a8981611967565b946020939093013593505050565b634e487b7160e01b600052601160045260246000fd5b8082028115828204841417611ac457611ac4611a97565b92915050565b80820180821115611ac457611ac4611a97565b600060208284031215611aef57600080fd5b5051919050565b634e487b7160e01b600052604160045260246000fd5b600060208284031215611b1e57600080fd5b815161048a81611967565b634e487b7160e01b600052603260045260246000fd5b600060018201611b5157611b51611a97565b5060010190565b6001600160a01b039384168152919092166020820152604081019190915260600190565b81810381811115611ac457611ac4611a97565b600060208284031215611ba157600080fd5b8151801515811461048a57600080fd5b634e487b7160e01b600052603160045260246000fd5b634e487b7160e01b600052601260045260246000fd5b600082611bfa57634e487b7160e01b600052601260045260246000fd5b50049056fea264697066735822122052c2c50c5917f3aecbf51b90a088ac5325004f7a62921143c4601d992688d20664736f6c63430008140033",
  "linkReferences": {},
  "deployedLinkReferences": {}
}