{
  "_format": "hh-sol-artifact-1",
  "contractName": "TokenA",
  "sourceName": "contracts/TokenA.sol",
  "abi": [
    {
      "inputs": [],
      "stateMutability": "nonpayable",
      "type": "constructor"
    },
    {
      "inputs": [
        {
          "internalType": "address",
          "name": "spender",
          "type": "address"
        },
        {
          "internalType": "uint256",
          "name": "allowance",
          "type": "uint256"
        },
        {
          "internalType": "uint256",
          "name": "needed",
          "type": "uint256"
        }
      ],
      "name": "ERC20InsufficientAllowance",
      "type": "error"
    },
    {
      "inputs": [
        {
          "internalType": "address",
          "name": "sender",
          "type": "address"
        },
        {
          "internalType": "uint256",
          "name": "balance",
          "type": "uint256"
        },
        {
          "internalType": "uint256",
          "name": "needed",
          "type": "uint256"
        }
      ],
      "name": "ERC20InsufficientBalance",
      "type": "error"
    },
    {
      "inputs": [
        {
          "internalType": "address",
          "name": "approver",
          "type": "address"
        }
      ],
      "name": "ERC20InvalidApprover",
      "type": "error"
    },
    {
      "inputs": [
        {
          "internalType": "address",
          "name": "receiver",
          "type": "address"
        }
      ],
      "name": "ERC20InvalidReceiver",
      "type": "error"
    },
    {
      "inputs": [
        {
          "internalType": "address",
          "name": "sender",
          "type": "address"
        }
      ],
      "name": "ERC20InvalidSender",
      "type": "error"
    },
    {
      "inputs": [
        {
          "internalType": "address",
          "name": "spender",
          "type": "address"
        }
      ],
      "name": "ERC20InvalidSpender",
      "type": "error"
    },
    {
      "inputs": [
        {
          "internalType": "address",
          "name": "owner",
          "type": "address"
        }
      ],
      "name": "OwnableInvalidOwner",
      "type": "error"
    },
    {
      "inputs": [
        {
          "internalType": "address",
          "name": "account",
          "type": "address"
        }
      ],
      "name": "OwnableUnauthorizedAccount",
      "type": "error"
    },
    {
      "inputs": [],
      "name": "ReentrancyGuardReentrantCall",
      "type": "error"
    },
    {
      "anonymous": false,
      "inputs": [
        {
          "indexed": true,
          "internalType": "address",
          "name": "owner",
          "type": "address"
        },
        {
          "indexed": true,
          "internalType": "address",
          "name": "spender",
          "type": "address"
        },
        {
          "indexed": false,
          "internalType": "uint256",
          "name": "value",
          "type": "uint256"
        }
      ],
      "name": "Approval",
      "type": "event"
    },
    {
      "anonymous": false,
      "inputs": [
        {
          "indexed": true,
          "internalType": "address",
          "name": "previousOwner",
          "type": "address"
        },
        {
          "indexed": true,
          "internalType": "address",
          "name": "newOwner",
          "type": "address"
        }
      ],
      "name": "OwnershipTransferred",
      "type": "event"
    },
    {
      "anonymous": false,
      "inputs": [
        {
          "indexed": true,
          "internalType": "address",
          "name": "from",
          "type": "address"
        },
        {
          "indexed": true,
          "internalType": "address",
          "name": "to",
          "type": "address"
        },
        {
          "indexed": false,
          "internalType": "uint256",
          "name": "value",
          "type": "uint256"
        }
      ],
      "name": "Transfer",
      "type": "event"
    },
    {
      "inputs": [],
      "name": "MAX_FAUCET_AMOUNT",
      "outputs": [
        {
          "internalType": "uint256",
          "name": "",
          "type": "uint256"
        }
      ],
      "stateMutability": "view",
      "type": "function"
    },
    {
      "inputs": [],
      "name": "MAX_SUPPLY",
      "outputs": [
        {
          "internalType": "uint256",
          "name": "",
          "type": "uint256"
        }
      ],
      "stateMutability": "view",
      "type": "function"
    },
    {
      "inputs": [],
      "name": "_stakingContract",
      "outputs": [
        {
          "internalType": "address",
          "name": "",
          "type": "address"
        }
      ],
      "stateMutability": "view",
      "type": "function"
    },
    {
      "inputs": [
        {
          "internalType": "address",
          "name": "owner",
          "type": "address"
        },
        {
          "internalType": "address",
          "name": "spender",
          "type": "address"
        }
      ],
      "name": "allowance",
      "outputs": [
        {
          "internalType": "uint256",
          "name": "",
          "type": "uint256"
        }
      ],
      "stateMutability": "view",
      "type": "function"
    },
    {
      "inputs": [
        {
          "internalType": "address",
          "name": "spender",
          "type": "address"
        },
        {
          "internalType": "uint256",
          "name": "value",
          "type": "uint256"
        }
      ],
      "name": "approve",
      "outputs": [
        {
          "internalType": "bool",
          "name": "",
          "type": "bool"
        }
      ],
      "stateMutability": "nonpayable",
      "type": "function"
    },
    {
      "inputs": [
        {
          "internalType": "address",
          "name": "account",
          "type": "address"
        }
      ],
      "name": "balanceOf",
      "outputs": [
        {
          "internalType": "uint256",
          "name": "",
          "type": "uint256"
        }
      ],
      "stateMutability": "view",
      "type": "function"
    },
    {
      "inputs": [],
      "name": "decimals",
      "outputs": [
        {
          "internalType": "uint8",
          "name": "",
          "type": "uint8"
        }
      ],
      "stateMutability": "view",
      "type": "function"
    },
    {
      "inputs": [
        {
          "internalType": "uint256",
          "name": "amount",
          "type": "uint256"
        }
      ],
      "name": "faucet",
      "outputs": [],
      "stateMutability": "nonpayable",
      "type": "function"
    },
    {
      "inputs": [],
      "name": "getContractBalance",
      "outputs": [
        {
          "internalType": "uint256",
          "name": "",
          "type": "uint256"
        }
      ],
      "stateMutability": "view",
      "type": "function"
    },
    {
      "inputs": [],
      "name": "name",
      "outputs": [
        {
          "internalType": "string",
          "name": "",
          "type": "string"
        }
      ],
      "stateMutability": "view",
      "type": "function"
    },
    {
      "inputs": [],
      "name": "owner",
      "outputs": [
        {
          "internalType": "address",
          "name": "",
          "type": "address"
        }
      ],
      "stateMutability": "view",
      "type": "function"
    },
    {
      "inputs": [],
      "name": "renounceOwnership",
      "outputs": [],
      "stateMutability": "nonpayable",
      "type": "function"
    },
    {
      "inputs": [
        {
          "internalType": "address",
          "name": "stakingContract",
          "type": "address"
        }
      ],
      "name": "setStakingContract",
      "outputs": [],
      "stateMutability": "nonpayable",
      "type": "function"
    },
    {
      "inputs": [],
      "name": "symbol",
      "outputs": [
        {
          "internalType": "string",
          "name": "",
          "type": "string"
        }
      ],
      "stateMutability": "view",
      "type": "function"
    },
    {
      "inputs": [],
      "name": "totalSupply",
      "outputs": [
        {
          "internalType": "uint256",
          "name": "",
          "type": "uint256"
        }
      ],
      "stateMutability": "view",
      "type": "function"
    },
    {
      "inputs": [
        {
          "internalType": "address",
          "name": "to",
          "type": "address"
        },
        {
          "internalType": "uint256",
          "name": "value",
          "type": "uint256"
        }
      ],
      "name": "transfer",
      "outputs": [
        {
          "internalType": "bool",
          "name": "",
          "type": "bool"
        }
      ],
      "stateMutability": "nonpayable",
      "type": "function"
    },
    {
      "inputs": [
        {
          "internalType": "address",
          "name": "from",
          "type": "address"
        },
        {
          "internalType": "address",
          "name": "to",
          "type": "address"
        },
        {
          "internalType": "uint256",
          "name": "value",
          "type": "uint256"
        }
      ],
      "name": "transferFrom",
      "outputs": [
        {
          "internalType": "bool",
          "name": "",
          "type": "bool"
        }
      ],
      "stateMutability": "nonpayable",
      "type": "function"
    },
    {
      "inputs": [
        {
          "internalType": "address",
          "name": "newOwner",
          "type": "address"
        }
      ],
      "name": "transferOwnership",
      "outputs": [],
      "stateMutability": "nonpayable",
      "type": "function"
    },
    {
      "inputs": [
        {
          "internalType": "address",
          "name": "to",
          "type": "address"
        },
        {
          "internalType": "uint256",
          "name": "amount",
          "type": "uint256"
        }
      ],
      "name": "transferReward",
      "outputs": [
        {
          "internalType": "bool",
          "name": "",
          "type": "bool"
        }
      ],
      "stateMutability": "nonpayable",
      "type": "function"
    }
  ],
  "bytecode": "0x60806040523480156200001157600080fd5b503360405180604001604052806007815260200166546f6b656e204160c81b81525060405180604001604052806003815260200162544b4160e81b815250816003908162000060919062000339565b5060046200006f828262000339565b5050506001600160a01b038116620000a257604051631e4fbdf760e01b8152600060048201526024015b60405180910390fd5b620000ad81620000d1565b506001600655620000cb306b019d971e4fe8401e7400000062000123565b6200042d565b600580546001600160a01b038381166001600160a01b0319831681179093556040519116919082907f8be0079c531659141344cd1fd0a4f28419497f9722a3daafe3b4186f6b6457e090600090a35050565b6001600160a01b0382166200014f5760405163ec442f0560e01b81526000600482015260240162000099565b6200015d6000838362000161565b5050565b6001600160a01b0383166200019057806002600082825462000184919062000405565b90915550620002049050565b6001600160a01b03831660009081526020819052604090205481811015620001e55760405163391434e360e21b81526001600160a01b0385166004820152602481018290526044810183905260640162000099565b6001600160a01b03841660009081526020819052604090209082900390555b6001600160a01b038216620002225760028054829003905562000241565b6001600160a01b03821660009081526020819052604090208054820190555b816001600160a01b0316836001600160a01b03167fddf252ad1be2c89b69c2b068fc378daa952ba7f163c4a11628f55a4df523b3ef836040516200028791815260200190565b60405180910390a3505050565b634e487b7160e01b600052604160045260246000fd5b600181811c90821680620002bf57607f821691505b602082108103620002e057634e487b7160e01b600052602260045260246000fd5b50919050565b601f8211156200033457600081815260208120601f850160051c810160208610156200030f5750805b601f850160051c820191505b8181101562000330578281556001016200031b565b5050505b505050565b81516001600160401b0381111562000355576200035562000294565b6200036d81620003668454620002aa565b84620002e6565b602080601f831160018114620003a557600084156200038c5750858301515b600019600386901b1c1916600185901b17855562000330565b600085815260208120601f198616915b82811015620003d657888601518255948401946001909101908401620003b5565b5085821015620003f55787850151600019600388901b60f8161c191681555b5050505050600190811b01905550565b808201808211156200042757634e487b7160e01b600052601160045260246000fd5b92915050565b610be0806200043d6000396000f3fe608060405234801561001057600080fd5b50600436106101215760003560e01c80636f9fb98a116100ad5780639dd373b9116100715780639dd373b91461025b578063a9059cbb1461026e578063b0de5e2914610281578063dd62ed3e14610294578063f2fde38b146102cd57600080fd5b80636f9fb98a146101e857806370a08231146101fd578063715018a6146102265780638da5cb5b1461022e57806395d89b411461025357600080fd5b806323b872dd116100f457806323b872dd1461018c578063313ce5671461019f57806332cb6b0c146101ae57806357915897146101c15780636376d2d8146101d657600080fd5b806306fdde0314610126578063095ea7b31461014457806315490ebb1461016757806318160ddd1461017a575b600080fd5b61012e6102e0565b60405161013b9190610a11565b60405180910390f35b610157610152366004610a7b565b610372565b604051901515815260200161013b565b610157610175366004610a7b565b61038c565b6002545b60405190815260200161013b565b61015761019a366004610aa5565b6104c8565b6040516012815260200161013b565b61017e6b019d971e4fe8401e7400000081565b6101d46101cf366004610ae1565b6104ec565b005b61017e6a027b46536c66c8e300000081565b3060009081526020819052604090205461017e565b61017e61020b366004610afa565b6001600160a01b031660009081526020819052604090205490565b6101d46105e3565b6005546001600160a01b03165b6040516001600160a01b03909116815260200161013b565b61012e6105f7565b6101d4610269366004610afa565b610606565b61015761027c366004610a7b565b610630565b60075461023b906001600160a01b031681565b61017e6102a2366004610b1c565b6001600160a01b03918216600090815260016020908152604080832093909416825291909152205490565b6101d46102db366004610afa565b61063e565b6060600380546102ef90610b4f565b80601f016020809104026020016040519081016040528092919081815260200182805461031b90610b4f565b80156103685780601f1061033d57610100808354040283529160200191610368565b820191906000526020600020905b81548152906001019060200180831161034b57829003601f168201915b5050505050905090565b600033610380818585610679565b60019150505b92915050565b600061039661068b565b600082116103e35760405162461bcd60e51b81526020600482015260156024820152744e6f2072657761726420746f20776974686472617760581b60448201526064015b60405180910390fd5b306000908152602081905260409020548211156104425760405162461bcd60e51b815260206004820152601d60248201527f4e6f7420656e6f75676820746f6b656e7320696e20636f6e747261637400000060448201526064016103da565b6007546001600160a01b031633146104b05760405162461bcd60e51b815260206004820152602b60248201527f43616e277420776974686472617720726577617264732066726f6d206f74686560448201526a7220636f6e74726163747360a81b60648201526084016103da565b6104bb3084846106b5565b5060016103866001600655565b6000336104d6858285610714565b6104e18585856106b5565b506001949350505050565b6104f461068b565b6a027b46536c66c8e30000008111156105615760405162461bcd60e51b815260206004820152602960248201527f4661756365743a20416d6f756e74206578636565642074686520616c6c6f7761604482015268189b19481b1a5b5a5d60ba1b60648201526084016103da565b306000908152602081905260409020548111156105cb5760405162461bcd60e51b815260206004820152602260248201527f4661756365743a204e6f7420656e6f75676820746f6b656e20746f2066617563604482015261195d60f21b60648201526084016103da565b6105d63033836106b5565b6105e06001600655565b50565b6105eb610793565b6105f560006107c0565b565b6060600480546102ef90610b4f565b61060e610793565b600780546001600160a01b0319166001600160a01b0392909216919091179055565b6000336103808185856106b5565b610646610793565b6001600160a01b03811661067057604051631e4fbdf760e01b8152600060048201526024016103da565b6105e0816107c0565b6106868383836001610812565b505050565b6002600654036106ae57604051633ee5aeb560e01b815260040160405180910390fd5b6002600655565b6001600160a01b0383166106df57604051634b637e8f60e11b8152600060048201526024016103da565b6001600160a01b0382166107095760405163ec442f0560e01b8152600060048201526024016103da565b6106868383836108e7565b6001600160a01b0383811660009081526001602090815260408083209386168352929052205460001981101561078d578181101561077e57604051637dc7a0d960e11b81526001600160a01b038416600482015260248101829052604481018390526064016103da565b61078d84848484036000610812565b50505050565b6005546001600160a01b031633146105f55760405163118cdaa760e01b81523360048201526024016103da565b600580546001600160a01b038381166001600160a01b0319831681179093556040519116919082907f8be0079c531659141344cd1fd0a4f28419497f9722a3daafe3b4186f6b6457e090600090a35050565b6001600160a01b03841661083c5760405163e602df0560e01b8152600060048201526024016103da565b6001600160a01b03831661086657604051634a1406b160e11b8152600060048201526024016103da565b6001600160a01b038085166000908152600160209081526040808320938716835292905220829055801561078d57826001600160a01b0316846001600160a01b03167f8c5be1e5ebec7d5bd14f71427d1e84f3dd0314c0f7b2291e5b200ac8c7c3b925846040516108d991815260200190565b60405180910390a350505050565b6001600160a01b0383166109125780600260008282546109079190610b89565b909155506109849050565b6001600160a01b038316600090815260208190526040902054818110156109655760405163391434e360e21b81526001600160a01b038516600482015260248101829052604481018390526064016103da565b6001600160a01b03841660009081526020819052604090209082900390555b6001600160a01b0382166109a0576002805482900390556109bf565b6001600160a01b03821660009081526020819052604090208054820190555b816001600160a01b0316836001600160a01b03167fddf252ad1be2c89b69c2b068fc378daa952ba7f163c4a11628f55a4df523b3ef83604051610a0491815260200190565b60405180910390a3505050565b600060208083528351808285015260005b81811015610a3e57858101830151858201604001528201610a22565b506000604082860101526040601f19601f8301168501019250505092915050565b80356001600160a01b0381168114610a7657600080fd5b919050565b60008060408385031215610a8e57600080fd5b610a9783610a5f565b946020939093013593505050565b600080600060608486031215610aba57600080fd5b610ac384610a5f565b9250610ad160208501610a5f565b9150604084013590509250925092565b600060208284031215610af357600080fd5b5035919050565b600060208284031215610b0c57600080fd5b610b1582610a5f565b9392505050565b60008060408385031215610b2f57600080fd5b610b3883610a5f565b9150610b4660208401610a5f565b90509250929050565b600181811c90821680610b6357607f821691505b602082108103610b8357634e487b7160e01b600052602260045260246000fd5b50919050565b8082018082111561038657634e487b7160e01b600052601160045260246000fdfea26469706673582212204d7f29326cd716b522c3f655f771fff0a04020ea486df0ca14e15deaec59148464736f6c63430008140033",
  "linkReferences": {},
  "deployedLinkReferences": {}
}