{
  "_format": "hh-sol-artifact-1",
  "contractName": "Staking",
  "sourceName": "contracts/Staking.sol",
  "abi": [
    {
      "inputs": [
        {
          "internalType": "address",
          "name": "tokenA",
          "type": "address"
        },
        {
          "internalType": "address",
          "name": "nftB",
          "type": "address"
        }
      ],
      "stateMutability": "nonpayable",
      "type": "constructor"
    },
    {
      "inputs": [
        {
          "internalType": "address",
          "name": "owner",
          "type": "address"
        }
      ],
      "name": "OwnableInvalidOwner",
      "type": "error"
    },
    {
      "inputs": [
        {
          "internalType": "address",
          "name": "account",
          "type": "address"
        }
      ],
      "name": "OwnableUnauthorizedAccount",
      "type": "error"
    },
    {
      "inputs": [],
      "name": "ReentrancyGuardReentrantCall",
      "type": "error"
    },
    {
      "anonymous": false,
      "inputs": [
        {
          "indexed": true,
          "internalType": "address",
          "name": "user",
          "type": "address"
        },
        {
          "indexed": false,
          "internalType": "uint256",
          "name": "newBaseAPR",
          "type": "uint256"
        }
      ],
      "name": "APRUpdated",
      "type": "event"
    },
    {
      "anonymous": false,
      "inputs": [
        {
          "indexed": true,
          "internalType": "address",
          "name": "user",
          "type": "address"
        },
        {
          "indexed": false,
          "internalType": "uint256",
          "name": "amount",
          "type": "uint256"
        }
      ],
      "name": "Deposited",
      "type": "event"
    },
    {
      "anonymous": false,
      "inputs": [
        {
          "indexed": true,
          "internalType": "address",
          "name": "user",
          "type": "address"
        },
        {
          "indexed": false,
          "internalType": "uint256",
          "name": "Id",
          "type": "uint256"
        }
      ],
      "name": "NFTDeposited",
      "type": "event"
    },
    {
      "anonymous": false,
      "inputs": [
        {
          "indexed": true,
          "internalType": "address",
          "name": "user",
          "type": "address"
        },
        {
          "indexed": false,
          "internalType": "uint256",
          "name": "tokenId",
          "type": "uint256"
        }
      ],
      "name": "NFTMinted",
      "type": "event"
    },
    {
      "anonymous": false,
      "inputs": [
        {
          "indexed": true,
          "internalType": "address",
          "name": "user",
          "type": "address"
        },
        {
          "indexed": false,
          "internalType": "uint256",
          "name": "tokenId",
          "type": "uint256"
        }
      ],
      "name": "NFTsWithDrawn",
      "type": "event"
    },
    {
      "anonymous": false,
      "inputs": [
        {
          "indexed": true,
          "internalType": "address",
          "name": "previousOwner",
          "type": "address"
        },
        {
          "indexed": true,
          "internalType": "address",
          "name": "newOwner",
          "type": "address"
        }
      ],
      "name": "OwnershipTransferred",
      "type": "event"
    },
    {
      "anonymous": false,
      "inputs": [
        {
          "indexed": true,
          "internalType": "address",
          "name": "user",
          "type": "address"
        },
        {
          "indexed": false,
          "internalType": "uint256",
          "name": "reward",
          "type": "uint256"
        }
      ],
      "name": "RewardClaimed",
      "type": "event"
    },
    {
      "anonymous": false,
      "inputs": [
        {
          "indexed": true,
          "internalType": "address",
          "name": "user",
          "type": "address"
        },
        {
          "indexed": false,
          "internalType": "uint256",
          "name": "amount",
          "type": "uint256"
        },
        {
          "indexed": false,
          "internalType": "uint256",
          "name": "reward",
          "type": "uint256"
        }
      ],
      "name": "WithDrawn",
      "type": "event"
    },
    {
      "inputs": [],
      "name": "APR",
      "outputs": [
        {
          "internalType": "uint256",
          "name": "",
          "type": "uint256"
        }
      ],
      "stateMutability": "view",
      "type": "function"
    },
    {
      "inputs": [],
      "name": "APR_Bonus",
      "outputs": [
        {
          "internalType": "uint256",
          "name": "",
          "type": "uint256"
        }
      ],
      "stateMutability": "view",
      "type": "function"
    },
    {
      "inputs": [],
      "name": "NFT_PREREQUISITE",
      "outputs": [
        {
          "internalType": "uint256",
          "name": "",
          "type": "uint256"
        }
      ],
      "stateMutability": "view",
      "type": "function"
    },
    {
      "inputs": [],
      "name": "TIME_LOCK",
      "outputs": [
        {
          "internalType": "uint256",
          "name": "",
          "type": "uint256"
        }
      ],
      "stateMutability": "view",
      "type": "function"
    },
    {
      "inputs": [
        {
          "internalType": "address",
          "name": "user",
          "type": "address"
        }
      ],
      "name": "_calculateReward",
      "outputs": [
        {
          "internalType": "uint256",
          "name": "",
          "type": "uint256"
        }
      ],
      "stateMutability": "view",
      "type": "function"
    },
    {
      "inputs": [],
      "name": "_nftB",
      "outputs": [
        {
          "internalType": "contract NFTB",
          "name": "",
          "type": "address"
        }
      ],
      "stateMutability": "view",
      "type": "function"
    },
    {
      "inputs": [],
      "name": "_tokenA",
      "outputs": [
        {
          "internalType": "contract TokenA",
          "name": "",
          "type": "address"
        }
      ],
      "stateMutability": "view",
      "type": "function"
    },
    {
      "inputs": [],
      "name": "claimReward",
      "outputs": [],
      "stateMutability": "nonpayable",
      "type": "function"
    },
    {
      "inputs": [
        {
          "internalType": "uint256",
          "name": "amount",
          "type": "uint256"
        }
      ],
      "name": "deposit",
      "outputs": [],
      "stateMutability": "nonpayable",
      "type": "function"
    },
    {
      "inputs": [],
      "name": "getContractBalance",
      "outputs": [
        {
          "internalType": "uint256",
          "name": "",
          "type": "uint256"
        }
      ],
      "stateMutability": "view",
      "type": "function"
    },
    {
      "inputs": [
        {
          "internalType": "address",
          "name": "user",
          "type": "address"
        }
      ],
      "name": "getCurrentAPR",
      "outputs": [
        {
          "internalType": "uint256",
          "name": "",
          "type": "uint256"
        }
      ],
      "stateMutability": "view",
      "type": "function"
    },
    {
      "inputs": [
        {
          "internalType": "address",
          "name": "user",
          "type": "address"
        }
      ],
      "name": "getLockTimeRemaining",
      "outputs": [
        {
          "internalType": "uint256",
          "name": "",
          "type": "uint256"
        }
      ],
      "stateMutability": "view",
      "type": "function"
    },
    {
      "inputs": [
        {
          "internalType": "address",
          "name": "user",
          "type": "address"
        }
      ],
      "name": "getNFTInfo",
      "outputs": [
        {
          "internalType": "uint256",
          "name": "",
          "type": "uint256"
        }
      ],
      "stateMutability": "view",
      "type": "function"
    },
    {
      "inputs": [
        {
          "internalType": "address",
          "name": "user",
          "type": "address"
        }
      ],
      "name": "getNFTListByOwner",
      "outputs": [
        {
          "internalType": "uint256[]",
          "name": "",
          "type": "uint256[]"
        }
      ],
      "stateMutability": "view",
      "type": "function"
    },
    {
      "inputs": [
        {
          "internalType": "address",
          "name": "user",
          "type": "address"
        }
      ],
      "name": "getStakeDetail",
      "outputs": [
        {
          "internalType": "uint256",
          "name": "amount",
          "type": "uint256"
        },
        {
          "internalType": "uint256",
          "name": "pendingReward",
          "type": "uint256"
        },
        {
          "internalType": "uint256",
          "name": "calculatedReward",
          "type": "uint256"
        },
        {
          "internalType": "uint256",
          "name": "lockEndTime",
          "type": "uint256"
        },
        {
          "internalType": "uint256",
          "name": "nftCount",
          "type": "uint256"
        }
      ],
      "stateMutability": "view",
      "type": "function"
    },
    {
      "inputs": [
        {
          "internalType": "address",
          "name": "user",
          "type": "address"
        }
      ],
      "name": "getStakeNFTCount",
      "outputs": [
        {
          "internalType": "uint256",
          "name": "",
          "type": "uint256"
        }
      ],
      "stateMutability": "view",
      "type": "function"
    },
    {
      "inputs": [
        {
          "internalType": "address",
          "name": "",
          "type": "address"
        }
      ],
      "name": "mintedNFTs",
      "outputs": [
        {
          "internalType": "uint256",
          "name": "",
          "type": "uint256"
        }
      ],
      "stateMutability": "view",
      "type": "function"
    },
    {
      "inputs": [
        {
          "internalType": "uint256",
          "name": "tokenId",
          "type": "uint256"
        }
      ],
      "name": "nftDeposit",
      "outputs": [],
      "stateMutability": "nonpayable",
      "type": "function"
    },
    {
      "inputs": [],
      "name": "owner",
      "outputs": [
        {
          "internalType": "address",
          "name": "",
          "type": "address"
        }
      ],
      "stateMutability": "view",
      "type": "function"
    },
    {
      "inputs": [],
      "name": "renounceOwnership",
      "outputs": [],
      "stateMutability": "nonpayable",
      "type": "function"
    },
    {
      "inputs": [
        {
          "internalType": "address",
          "name": "",
          "type": "address"
        },
        {
          "internalType": "uint256",
          "name": "",
          "type": "uint256"
        }
      ],
      "name": "stakedNFTs",
      "outputs": [
        {
          "internalType": "uint256",
          "name": "",
          "type": "uint256"
        }
      ],
      "stateMutability": "view",
      "type": "function"
    },
    {
      "inputs": [
        {
          "internalType": "address",
          "name": "",
          "type": "address"
        }
      ],
      "name": "stakes",
      "outputs": [
        {
          "internalType": "uint256",
          "name": "timestamp",
          "type": "uint256"
        },
        {
          "internalType": "uint256",
          "name": "amount",
          "type": "uint256"
        },
        {
          "internalType": "uint256",
          "name": "nftCount",
          "type": "uint256"
        },
        {
          "internalType": "uint256",
          "name": "lockEndTime",
          "type": "uint256"
        },
        {
          "internalType": "uint256",
          "name": "pendingReward",
          "type": "uint256"
        },
        {
          "internalType": "uint256",
          "name": "totalStakedAmount",
          "type": "uint256"
        },
        {
          "internalType": "uint256",
          "name": "nftDepositTime",
          "type": "uint256"
        },
        {
          "internalType": "uint256",
          "name": "mintedNFTCount",
          "type": "uint256"
        }
      ],
      "stateMutability": "view",
      "type": "function"
    },
    {
      "inputs": [
        {
          "internalType": "address",
          "name": "newOwner",
          "type": "address"
        }
      ],
      "name": "transferOwnership",
      "outputs": [],
      "stateMutability": "nonpayable",
      "type": "function"
    },
    {
      "inputs": [
        {
          "internalType": "uint256",
          "name": "newAPR",
          "type": "uint256"
        }
      ],
      "name": "updateAPR",
      "outputs": [],
      "stateMutability": "nonpayable",
      "type": "function"
    },
    {
      "inputs": [],
      "name": "withDrawn",
      "outputs": [],
      "stateMutability": "nonpayable",
      "type": "function"
    },
    {
      "inputs": [
        {
          "internalType": "uint256[]",
          "name": "tokenIds",
          "type": "uint256[]"
        }
      ],
      "name": "withDrawnNFT",
      "outputs": [],
      "stateMutability": "nonpayable",
      "type": "function"
    }
  ],
  "bytecode": "0x6080604052601e60075561032060085560c860095569d3c21bcecceda1000000600a553480156200002f57600080fd5b5060405162001dab38038062001dab833981016040819052620000529162000128565b33806200007957604051631e4fbdf760e01b81526000600482015260240160405180910390fd5b6200008481620000bb565b5060018055600280546001600160a01b039384166001600160a01b0319918216179091556003805492909316911617905562000160565b600080546001600160a01b038381166001600160a01b0319831681178455604051919092169283917f8be0079c531659141344cd1fd0a4f28419497f9722a3daafe3b4186f6b6457e09190a35050565b80516001600160a01b03811681146200012357600080fd5b919050565b600080604083850312156200013c57600080fd5b62000147836200010b565b915062000157602084016200010b565b90509250929050565b611c3b80620001706000396000f3fe608060405234801561001057600080fd5b506004361061018e5760003560e01c80639ae3b518116100de578063bd30558e11610097578063f2fde38b11610071578063f2fde38b146103fc578063f3c4469f1461040f578063f706004814610422578063f821b4951461043557600080fd5b8063bd30558e146103d7578063e0a09c68146103e0578063e7e2629e146103e957600080fd5b80639ae3b5181461036d578063af06e40e14610380578063afea263914610389578063b6b55f251461039c578063b88a802f146103af578063ba060bed146103b757600080fd5b80633c6d5aab1161014b5780634ba76eee116101255780634ba76eee146102fd5780636f9fb98a14610338578063715018a6146103405780638da5cb5b1461034857600080fd5b80633c6d5aab146102b657806348930d11146102be578063497f285d146102ea57600080fd5b806301d650e114610193578063095c7783146101b957806316934fc4146101e25780631ffc480f1461026e578063279d9afa1461028e5780633823ec3b146102a3575b600080fd5b6101a66101a1366004611982565b61043e565b6040519081526020015b60405180910390f35b6101a66101c7366004611982565b6001600160a01b031660009081526006602052604090205490565b6102336101f0366004611982565b6004602081905260009182526040909120805460018201546002830154600384015494840154600585015460068601546007909601549496939592949192909188565b604080519889526020890197909752958701949094526060860192909252608085015260a084015260c083015260e0820152610100016101b0565b61028161027c366004611982565b610497565b6040516101b0919061199f565b6102a161029c3660046119e3565b610624565b005b6101a66102b1366004611982565b610814565b6102a161085d565b6101a66102cc366004611982565b6001600160a01b031660009081526004602052604090206002015490565b6101a66102f8366004611982565b610c87565b61031061030b366004611982565b610dfa565b604080519586526020860194909452928401919091526060830152608082015260a0016101b0565b6101a6610e47565b6102a1610eb9565b6000546001600160a01b03165b6040516001600160a01b0390911681526020016101b0565b600354610355906001600160a01b031681565b6101a660095481565b6102a16103973660046119fc565b610ecb565b6102a16103aa3660046119e3565b6111e2565b6102a1611514565b6101a66103c5366004611982565b60066020526000908152604090205481565b6101a660085481565b6101a660075481565b6102a16103f73660046119e3565b6116fe565b6102a161040a366004611982565b611743565b600254610355906001600160a01b031681565b6101a6610430366004611a71565b61177e565b6101a6600a5481565b336000908152600460205260408082206001600160a01b0384168352908220600201548203610471575050600854919050565b60095481600201546104839190611ab3565b6008546104909190611ad0565b9392505050565b6003546040516370a0823160e01b81526001600160a01b0383811660048301526060926000929116906370a0823190602401602060405180830381865afa1580156104e6573d6000803e3d6000fd5b505050506040513d601f19601f8201168201806040525081019061050a9190611ae3565b905060008167ffffffffffffffff81111561052757610527611afc565b604051908082528060200260200182016040528015610550578160200160208202803683370190505b5090506000805b8382101561061a576003546040516331a9108f60e11b8152600481018390526001600160a01b03888116921690636352211e90602401602060405180830381865afa1580156105aa573d6000803e3d6000fd5b505050506040513d601f19601f820116820180604052508101906105ce9190611b12565b6001600160a01b03160361060857808383815181106105ef576105ef611b2f565b60209081029190910101528161060481611b45565b9250505b8061061281611b45565b915050610557565b5090949350505050565b61062c6117af565b6003546040516331a9108f60e11b81526004810183905233916001600160a01b031690636352211e90602401602060405180830381865afa158015610675573d6000803e3d6000fd5b505050506040513d601f19601f820116820180604052508101906106999190611b12565b6001600160a01b0316146106ed5760405162461bcd60e51b8152602060048201526016602482015275165bdd48191bdb89dd081bdddb881d1a1a5cc813919560521b60448201526064015b60405180910390fd5b6003546040516323b872dd60e01b81526001600160a01b03909116906323b872dd9061072190339030908690600401611b5e565b600060405180830381600087803b15801561073b57600080fd5b505af115801561074f573d6000803e3d6000fd5b505033600090815260046020526040902060018101549092501590506107915761077833610c87565b81600401600082825461078b9190611ad0565b90915550505b3360009081526005602090815260408220805460018101825590835290822001839055428083556006830155600282018054916107cd83611b45565b909155505060405182815233907f1c4b8380f61aea3d5d98cbadaf2e6b2e4f3d8ca8c0fce1290b26ac267158745f9060200160405180910390a25061081160018055565b50565b6001600160a01b0381166000908152600460205260408120600181015415806108405750428160030154105b1561084e5750600092915050565b60038101546104909042611b82565b6108656117af565b33600090815260046020526040902060018101546108bc5760405162461bcd60e51b81526020600482015260146024820152734e6f207374616b6520746f20776974686472617760601b60448201526064016106e4565b806003015442101561091b5760405162461bcd60e51b815260206004820152602260248201527f4c6f636b6564206163636f756e742063616e6e6f7420626520776974686472616044820152613bb760f11b60648201526084016106e4565b6000816004015461092b33610c87565b6109359190611ad0565b600254600184015460405163a9059cbb60e01b815233600482015260248101919091529192506001600160a01b03169063a9059cbb906044016020604051808303816000875af115801561098d573d6000803e3d6000fd5b505050506040513d601f19601f820116820180604052508101906109b19190611b95565b6109f45760405162461bcd60e51b8152602060048201526014602482015273105b5bdd5b9d08151c985b9cd9995c8819985a5b60621b60448201526064016106e4565b6002546040516315490ebb60e01b8152336004820152602481018390526001600160a01b03909116906315490ebb906044016020604051808303816000875af1158015610a45573d6000803e3d6000fd5b505050506040513d601f19601f82011682018060405250810190610a699190611b95565b610ab55760405162461bcd60e51b815260206004820152601a60248201527f526577617264205472616e73666572526577617264206661696c00000000000060448201526064016106e4565b60005b33600090815260056020526040902054811015610bab57336000908152600560205260408120805483908110610af057610af0611b2f565b6000918252602090912001546003546040516323b872dd60e01b81529192506001600160a01b0316906323b872dd90610b3190309033908690600401611b5e565b600060405180830381600087803b158015610b4b57600080fd5b505af1158015610b5f573d6000803e3d6000fd5b50506040518381523392507f02fca8621ed1e1dbe5d940fbef04efcfecbbb59321dffea20b5bf1d9d33d2ec4915060200160405180910390a25080610ba381611b45565b915050610ab8565b506001820154604080519182526020820183905233917fcf0a6e5424f1be29da85b3a1a951b7710a56783e142e3f2a2716c579920090c3910160405180910390a260405181815233907f106f923f993c2149d49b4255ff723acafa1f2d94393f561d3eda32ae348f72419060200160405180910390a2336000908152600560205260408120610c399161193b565b50503360009081526004602081905260408220828155600181018390556002810183905560038101839055908101829055600581018290556006810182905560070155610c8560018055565b565b6001600160a01b03811660009081526004602052604081206001810154610d075760405162461bcd60e51b815260206004820152602e60248201527f63616c63756c6174655265776172643a20616d6f756e74206d7573742062652060448201526d067726561746572207468616e20360941b60648201526084016106e4565b8054600090610d169042611b82565b905060008083600601541115610dc2576000610d6884600001548560060154610d3f9190611b82565b6008548660010154610d519190611ab3565b610d5b9190611ab3565b6001640757b12c006117d9565b90506000610dad856006015442610d7f9190611b82565b8660020154600954610d919190611ab3565b600854610d9e9190611ad0565b8760010154610d519190611ab3565b9050610db98183611ad0565b92505050610df2565b610def826008548560010154610dd89190611ab3565b610de29190611ab3565b600164496cebb8006117d9565b90505b949350505050565b6001600160a01b0381166000908152600460208190526040822060018101549181015491929081908190610e2d87610c87565b935080600301549250806002015491505091939590929450565b6002546040516370a0823160e01b81523060048201526000916001600160a01b0316906370a0823190602401602060405180830381865afa158015610e90573d6000803e3d6000fd5b505050506040513d601f19601f82011682018060405250810190610eb49190611ae3565b905090565b610ec161188e565b610c8560006118bb565b610ed36117af565b33600090815260046020526040902081610f2f5760405162461bcd60e51b815260206004820152601a60248201527f4e4654206d7573742062652067726561746572207468616e203000000000000060448201526064016106e4565b6000816002015411610f795760405162461bcd60e51b81526020600482015260136024820152724e6f204e46545320746f20776974686472617760681b60448201526064016106e4565b60008060005b848110156111a7576000868683818110610f9b57610f9b611b2f565b90506020020135905060005b856002015481101561115657336000908152600560205260409020805483919083908110610fd757610fd7611b2f565b906000526020600020015403611144576003546040516323b872dd60e01b81526001600160a01b03909116906323b872dd9061101b90309033908790600401611b5e565b600060405180830381600087803b15801561103557600080fd5b505af1158015611049573d6000803e3d6000fd5b5050336000908152600560205260409020805490925061106c9150600190611b82565b8154811061107c5761107c611b2f565b6000918252602080832090910154338352600590915260409091208054839081106110a9576110a9611b2f565b60009182526020808320909101929092553381526005909152604090208054806110d5576110d5611bb7565b60019003818190600052602060002001600090559055336001600160a01b03167f02fca8621ed1e1dbe5d940fbef04efcfecbbb59321dffea20b5bf1d9d33d2ec48360405161112691815260200190565b60405180910390a28461113881611b45565b95505060019350611156565b8061114e81611b45565b915050610fa7565b50826111945760405162461bcd60e51b815260206004820152600d60248201526c139195081b9bdd08199bdd5b99609a1b60448201526064016106e4565b508061119f81611b45565b915050610f7f565b50818360020160008282546111bc9190611b82565b90915550506006830154156111d2574260068401555b5050506111de60018055565b5050565b6111ea6117af565b600081116112495760405162461bcd60e51b815260206004820152602660248201527f6465706f7369743a20616d6f756e74206d75737420626520677265617465722060448201526507468616e20360d41b60648201526084016106e4565b6002546040516323b872dd60e01b81526001600160a01b03909116906323b872dd9061127d90339030908690600401611b5e565b6020604051808303816000875af115801561129c573d6000803e3d6000fd5b505050506040513d601f19601f820116820180604052508101906112c09190611b95565b6112fc5760405162461bcd60e51b815260206004820152600d60248201526c151c985b9cd9995c8819985a5b609a1b60448201526064016106e4565b33600090815260046020526040902060018101541561133d57600061132033610c87565b9050808260040160008282546113369190611ad0565b9091555050505b818160010160008282546113519190611ad0565b90915550504280825560075461136691611ad0565b8160030181905550818160050160008282546113829190611ad0565b9091555050600681015415611398574260068201555b6000600a5482600501546113ac9190611be3565b336000908152600660205260408120549192509082116113cd5760006113e7565b336000908152600660205260409020546113e79083611b82565b905060005b818110156114ae576003546040516340d097c360e01b81523360048201526000916001600160a01b0316906340d097c3906024016020604051808303816000875af115801561143f573d6000803e3d6000fd5b505050506040513d601f19601f820116820180604052508101906114639190611ae3565b60405181815290915033907f4cc0a9c4a99ddc700de1af2c9f916a7cbfdb71f14801ccff94061ad1ef8a80409060200160405180910390a250806114a681611b45565b9150506113ec565b5033600090815260066020526040812080548392906114ce908490611ad0565b909155505060405184815233907f2da466a7b24304f47e87fa2e1e5a81b9831ce54fec19055ce277ca2f39ba42c49060200160405180910390a250505061081160018055565b61151c6117af565b33600090815260046020526040902060018101546115885760405162461bcd60e51b8152602060048201526024808201527f5374616b656420616d6f756e74206d75737420626520677265617465722074686044820152630616e20360e41b60648201526084016106e4565b6000816004015461159833610c87565b6115a29190611ad0565b9050600081116115e95760405162461bcd60e51b81526020600482015260126024820152714e6f2072657761726420746f20636c61696d60701b60448201526064016106e4565b6002546040516315490ebb60e01b8152336004820152602481018390526001600160a01b03909116906315490ebb906044016020604051808303816000875af115801561163a573d6000803e3d6000fd5b505050506040513d601f19601f8201168201806040525081019061165e9190611b95565b6116a35760405162461bcd60e51b815260206004820152601660248201527514995dd85c99081d1c985b9cd9995c8819985a5b195960521b60448201526064016106e4565b600060048301554282556006820154156116be574260068301555b60405181815233907f106f923f993c2149d49b4255ff723acafa1f2d94393f561d3eda32ae348f72419060200160405180910390a25050610c8560018055565b61170661188e565b600881905560405181815233907fe047f6e1fc16c737c75900e8eff62a07e54eadfb6ee93bfe413ad4c17fa49c929060200160405180910390a250565b61174b61188e565b6001600160a01b03811661177557604051631e4fbdf760e01b8152600060048201526024016106e4565b610811816118bb565b6005602052816000526040600020818154811061179a57600080fd5b90600052602060002001600091509150505481565b6002600154036117d257604051633ee5aeb560e01b815260040160405180910390fd5b6002600155565b60008060006117e8868661190b565b915091508160000361180d5783818161180357611803611bcd565b0492505050610490565b818411611824576118246003851502601118611929565b6000848688096000868103871696879004966002600389028118808a02820302808a02820302808a02820302808a02820302808a02820302808a02909103029181900381900460010185841190960395909502919093039390930492909217029150509392505050565b6000546001600160a01b03163314610c855760405163118cdaa760e01b81523360048201526024016106e4565b600080546001600160a01b038381166001600160a01b0319831681178455604051919092169283917f8be0079c531659141344cd1fd0a4f28419497f9722a3daafe3b4186f6b6457e09190a35050565b60008060001983850993909202808410938190039390930393915050565b634e487b71600052806020526024601cfd5b508054600082559060005260206000209081019061081191905b808211156119695760008155600101611955565b5090565b6001600160a01b038116811461081157600080fd5b60006020828403121561199457600080fd5b81356104908161196d565b6020808252825182820181905260009190848201906040850190845b818110156119d7578351835292840192918401916001016119bb565b50909695505050505050565b6000602082840312156119f557600080fd5b5035919050565b60008060208385031215611a0f57600080fd5b823567ffffffffffffffff80821115611a2757600080fd5b818501915085601f830112611a3b57600080fd5b813581811115611a4a57600080fd5b8660208260051b8501011115611a5f57600080fd5b60209290920196919550909350505050565b60008060408385031215611a8457600080fd5b8235611a8f8161196d565b946020939093013593505050565b634e487b7160e01b600052601160045260246000fd5b8082028115828204841417611aca57611aca611a9d565b92915050565b80820180821115611aca57611aca611a9d565b600060208284031215611af557600080fd5b5051919050565b634e487b7160e01b600052604160045260246000fd5b600060208284031215611b2457600080fd5b81516104908161196d565b634e487b7160e01b600052603260045260246000fd5b600060018201611b5757611b57611a9d565b5060010190565b6001600160a01b039384168152919092166020820152604081019190915260600190565b81810381811115611aca57611aca611a9d565b600060208284031215611ba757600080fd5b8151801515811461049057600080fd5b634e487b7160e01b600052603160045260246000fd5b634e487b7160e01b600052601260045260246000fd5b600082611c0057634e487b7160e01b600052601260045260246000fd5b50049056fea264697066735822122018b6db5451356b656fda45ef67bb9ababeffb9024e5e3fe6fe1fe2969d842e7364736f6c63430008140033",
  "linkReferences": {},
  "deployedLinkReferences": {}
}